{
	"data": {
		"bytecode": {
			"linkReferences": {},
			"object": "608060405234801561001057600080fd5b5033600160006101000a81548173ffffffffffffffffffffffffffffffffffffffff021916908373ffffffffffffffffffffffffffffffffffffffff160217905550610eec806100616000396000f3fe608060405234801561001057600080fd5b50600436106100625760003560e01c80630f560cd7146100675780634cc82215146100855780638da5cb5b146100a15780639507d39a146100bf578063ebdf86ca146100ef578063f745630f1461010b575b600080fd5b61006f610127565b60405161007c9190610832565b60405180910390f35b61009f600480360381019061009a919061089e565b6102c5565b005b6100a9610321565b6040516100b6919061090c565b60405180910390f35b6100d960048036038101906100d4919061089e565b610347565b6040516100e6919061097e565b60405180910390f35b61010960048036038101906101049190610ad5565b6104c2565b005b61012560048036038101906101209190610b4d565b6105b7565b005b60606000805480602002602001604051908101604052809291908181526020016000905b828210156102bc578382906000526020600020906003020160405180606001604052908160008201805461017e90610bd8565b80601f01602080910402602001604051908101604052809291908181526020018280546101aa90610bd8565b80156101f75780601f106101cc576101008083540402835291602001916101f7565b820191906000526020600020905b8154815290600101906020018083116101da57829003601f168201915b505050505081526020016001820160009054906101000a900460ff1615151515815260200160028201805461022b90610bd8565b80601f016020809104026020016040519081016040528092919081815260200182805461025790610bd8565b80156102a45780601f10610279576101008083540402835291602001916102a4565b820191906000526020600020905b81548152906001019060200180831161028757829003601f168201915b5050505050815250508152602001906001019061014b565b50505050905090565b600081815481106102d9576102d8610c09565b5b9060005260206000209060030201600080820160006102f891906105ee565b6001820160006101000a81549060ff021916905560028201600061031c91906105ee565b505050565b600160009054906101000a900473ffffffffffffffffffffffffffffffffffffffff1681565b61034f61062e565b6000828154811061036357610362610c09565b5b906000526020600020906003020160405180606001604052908160008201805461038c90610bd8565b80601f01602080910402602001604051908101604052809291908181526020018280546103b890610bd8565b80156104055780601f106103da57610100808354040283529160200191610405565b820191906000526020600020905b8154815290600101906020018083116103e857829003601f168201915b505050505081526020016001820160009054906101000a900460ff1615151515815260200160028201805461043990610bd8565b80601f016020809104026020016040519081016040528092919081815260200182805461046590610bd8565b80156104b25780601f10610487576101008083540402835291602001916104b2565b820191906000526020600020905b81548152906001019060200180831161049557829003601f168201915b5050505050815250509050919050565b3373ffffffffffffffffffffffffffffffffffffffff16600160009054906101000a900473ffffffffffffffffffffffffffffffffffffffff1673ffffffffffffffffffffffffffffffffffffffff161461051c57600080fd5b60006040518060600160405280848152602001600015158152602001838152509080600181540180825580915050600190039060005260206000209060030201600090919091909150600082015181600001908161057a9190610de4565b5060208201518160010160006101000a81548160ff02191690831515021790555060408201518160020190816105b09190610de4565b5050505050565b80600083815481106105cc576105cb610c09565b5b906000526020600020906003020160000190816105e99190610de4565b505050565b5080546105fa90610bd8565b6000825580601f1061060c575061062b565b601f01602090049060005260206000209081019061062a9190610651565b5b50565b604051806060016040528060608152602001600015158152602001606081525090565b5b8082111561066a576000816000905550600101610652565b5090565b600081519050919050565b600082825260208201905092915050565b6000819050602082019050919050565b600081519050919050565b600082825260208201905092915050565b60005b838110156106d45780820151818401526020810190506106b9565b60008484015250505050565b6000601f19601f8301169050919050565b60006106fc8261069a565b61070681856106a5565b93506107168185602086016106b6565b61071f816106e0565b840191505092915050565b60008115159050919050565b61073f8161072a565b82525050565b6000606083016000830151848203600086015261076282826106f1565b91505060208301516107776020860182610736565b506040830151848203604086015261078f82826106f1565b9150508091505092915050565b60006107a88383610745565b905092915050565b6000602082019050919050565b60006107c88261066e565b6107d28185610679565b9350836020820285016107e48561068a565b8060005b858110156108205784840389528151610801858261079c565b945061080c836107b0565b925060208a019950506001810190506107e8565b50829750879550505050505092915050565b6000602082019050818103600083015261084c81846107bd565b905092915050565b6000604051905090565b600080fd5b600080fd5b6000819050919050565b61087b81610868565b811461088657600080fd5b50565b60008135905061089881610872565b92915050565b6000602082840312156108b4576108b361085e565b5b60006108c284828501610889565b91505092915050565b600073ffffffffffffffffffffffffffffffffffffffff82169050919050565b60006108f6826108cb565b9050919050565b610906816108eb565b82525050565b600060208201905061092160008301846108fd565b92915050565b6000606083016000830151848203600086015261094482826106f1565b91505060208301516109596020860182610736565b506040830151848203604086015261097182826106f1565b9150508091505092915050565b600060208201905081810360008301526109988184610927565b905092915050565b600080fd5b600080fd5b7f4e487b7100000000000000000000000000000000000000000000000000000000600052604160045260246000fd5b6109e2826106e0565b810181811067ffffffffffffffff82111715610a0157610a006109aa565b5b80604052505050565b6000610a14610854565b9050610a2082826109d9565b919050565b600067ffffffffffffffff821115610a4057610a3f6109aa565b5b610a49826106e0565b9050602081019050919050565b82818337600083830152505050565b6000610a78610a7384610a25565b610a0a565b905082815260208101848484011115610a9457610a936109a5565b5b610a9f848285610a56565b509392505050565b600082601f830112610abc57610abb6109a0565b5b8135610acc848260208601610a65565b91505092915050565b60008060408385031215610aec57610aeb61085e565b5b600083013567ffffffffffffffff811115610b0a57610b09610863565b5b610b1685828601610aa7565b925050602083013567ffffffffffffffff811115610b3757610b36610863565b5b610b4385828601610aa7565b9150509250929050565b60008060408385031215610b6457610b6361085e565b5b6000610b7285828601610889565b925050602083013567ffffffffffffffff811115610b9357610b92610863565b5b610b9f85828601610aa7565b9150509250929050565b7f4e487b7100000000000000000000000000000000000000000000000000000000600052602260045260246000fd5b60006002820490506001821680610bf057607f821691505b602082108103610c0357610c02610ba9565b5b50919050565b7f4e487b7100000000000000000000000000000000000000000000000000000000600052603260045260246000fd5b60008190508160005260206000209050919050565b60006020601f8301049050919050565b600082821b905092915050565b600060088302610c9a7fffffffffffffffffffffffffffffffffffffffffffffffffffffffffffffffff82610c5d565b610ca48683610c5d565b95508019841693508086168417925050509392505050565b6000819050919050565b6000610ce1610cdc610cd784610868565b610cbc565b610868565b9050919050565b6000819050919050565b610cfb83610cc6565b610d0f610d0782610ce8565b848454610c6a565b825550505050565b600090565b610d24610d17565b610d2f818484610cf2565b505050565b5b81811015610d5357610d48600082610d1c565b600181019050610d35565b5050565b601f821115610d9857610d6981610c38565b610d7284610c4d565b81016020851015610d81578190505b610d95610d8d85610c4d565b830182610d34565b50505b505050565b600082821c905092915050565b6000610dbb60001984600802610d9d565b1980831691505092915050565b6000610dd48383610daa565b9150826002028217905092915050565b610ded8261069a565b67ffffffffffffffff811115610e0657610e056109aa565b5b610e108254610bd8565b610e1b828285610d57565b600060209050601f831160018114610e4e5760008415610e3c578287015190505b610e468582610dc8565b865550610eae565b601f198416610e5c86610c38565b60005b82811015610e8457848901518255600182019150602085019450602081019050610e5f565b86831015610ea15784890151610e9d601f891682610daa565b8355505b6001600288020188555050505b50505050505056fea2646970667358221220c74f880a59af796f3d89a07b2a45a073f7839ffe1652844b622cc6c0196e8f3a64736f6c63430008120033",
			"opcodes": "PUSH1 0x80 PUSH1 0x40 MSTORE CALLVALUE DUP1 ISZERO PUSH2 0x10 JUMPI PUSH1 0x0 DUP1 REVERT JUMPDEST POP CALLER PUSH1 0x1 PUSH1 0x0 PUSH2 0x100 EXP DUP2 SLOAD DUP2 PUSH20 0xFFFFFFFFFFFFFFFFFFFFFFFFFFFFFFFFFFFFFFFF MUL NOT AND SWAP1 DUP4 PUSH20 0xFFFFFFFFFFFFFFFFFFFFFFFFFFFFFFFFFFFFFFFF AND MUL OR SWAP1 SSTORE POP PUSH2 0xEEC DUP1 PUSH2 0x61 PUSH1 0x0 CODECOPY PUSH1 0x0 RETURN INVALID PUSH1 0x80 PUSH1 0x40 MSTORE CALLVALUE DUP1 ISZERO PUSH2 0x10 JUMPI PUSH1 0x0 DUP1 REVERT JUMPDEST POP PUSH1 0x4 CALLDATASIZE LT PUSH2 0x62 JUMPI PUSH1 0x0 CALLDATALOAD PUSH1 0xE0 SHR DUP1 PUSH4 0xF560CD7 EQ PUSH2 0x67 JUMPI DUP1 PUSH4 0x4CC82215 EQ PUSH2 0x85 JUMPI DUP1 PUSH4 0x8DA5CB5B EQ PUSH2 0xA1 JUMPI DUP1 PUSH4 0x9507D39A EQ PUSH2 0xBF JUMPI DUP1 PUSH4 0xEBDF86CA EQ PUSH2 0xEF JUMPI DUP1 PUSH4 0xF745630F EQ PUSH2 0x10B JUMPI JUMPDEST PUSH1 0x0 DUP1 REVERT JUMPDEST PUSH2 0x6F PUSH2 0x127 JUMP JUMPDEST PUSH1 0x40 MLOAD PUSH2 0x7C SWAP2 SWAP1 PUSH2 0x832 JUMP JUMPDEST PUSH1 0x40 MLOAD DUP1 SWAP2 SUB SWAP1 RETURN JUMPDEST PUSH2 0x9F PUSH1 0x4 DUP1 CALLDATASIZE SUB DUP2 ADD SWAP1 PUSH2 0x9A SWAP2 SWAP1 PUSH2 0x89E JUMP JUMPDEST PUSH2 0x2C5 JUMP JUMPDEST STOP JUMPDEST PUSH2 0xA9 PUSH2 0x321 JUMP JUMPDEST PUSH1 0x40 MLOAD PUSH2 0xB6 SWAP2 SWAP1 PUSH2 0x90C JUMP JUMPDEST PUSH1 0x40 MLOAD DUP1 SWAP2 SUB SWAP1 RETURN JUMPDEST PUSH2 0xD9 PUSH1 0x4 DUP1 CALLDATASIZE SUB DUP2 ADD SWAP1 PUSH2 0xD4 SWAP2 SWAP1 PUSH2 0x89E JUMP JUMPDEST PUSH2 0x347 JUMP JUMPDEST PUSH1 0x40 MLOAD PUSH2 0xE6 SWAP2 SWAP1 PUSH2 0x97E JUMP JUMPDEST PUSH1 0x40 MLOAD DUP1 SWAP2 SUB SWAP1 RETURN JUMPDEST PUSH2 0x109 PUSH1 0x4 DUP1 CALLDATASIZE SUB DUP2 ADD SWAP1 PUSH2 0x104 SWAP2 SWAP1 PUSH2 0xAD5 JUMP JUMPDEST PUSH2 0x4C2 JUMP JUMPDEST STOP JUMPDEST PUSH2 0x125 PUSH1 0x4 DUP1 CALLDATASIZE SUB DUP2 ADD SWAP1 PUSH2 0x120 SWAP2 SWAP1 PUSH2 0xB4D JUMP JUMPDEST PUSH2 0x5B7 JUMP JUMPDEST STOP JUMPDEST PUSH1 0x60 PUSH1 0x0 DUP1 SLOAD DUP1 PUSH1 0x20 MUL PUSH1 0x20 ADD PUSH1 0x40 MLOAD SWAP1 DUP2 ADD PUSH1 0x40 MSTORE DUP1 SWAP3 SWAP2 SWAP1 DUP2 DUP2 MSTORE PUSH1 0x20 ADD PUSH1 0x0 SWAP1 JUMPDEST DUP3 DUP3 LT ISZERO PUSH2 0x2BC JUMPI DUP4 DUP3 SWAP1 PUSH1 0x0 MSTORE PUSH1 0x20 PUSH1 0x0 KECCAK256 SWAP1 PUSH1 0x3 MUL ADD PUSH1 0x40 MLOAD DUP1 PUSH1 0x60 ADD PUSH1 0x40 MSTORE SWAP1 DUP2 PUSH1 0x0 DUP3 ADD DUP1 SLOAD PUSH2 0x17E SWAP1 PUSH2 0xBD8 JUMP JUMPDEST DUP1 PUSH1 0x1F ADD PUSH1 0x20 DUP1 SWAP2 DIV MUL PUSH1 0x20 ADD PUSH1 0x40 MLOAD SWAP1 DUP2 ADD PUSH1 0x40 MSTORE DUP1 SWAP3 SWAP2 SWAP1 DUP2 DUP2 MSTORE PUSH1 0x20 ADD DUP3 DUP1 SLOAD PUSH2 0x1AA SWAP1 PUSH2 0xBD8 JUMP JUMPDEST DUP1 ISZERO PUSH2 0x1F7 JUMPI DUP1 PUSH1 0x1F LT PUSH2 0x1CC JUMPI PUSH2 0x100 DUP1 DUP4 SLOAD DIV MUL DUP4 MSTORE SWAP2 PUSH1 0x20 ADD SWAP2 PUSH2 0x1F7 JUMP JUMPDEST DUP3 ADD SWAP2 SWAP1 PUSH1 0x0 MSTORE PUSH1 0x20 PUSH1 0x0 KECCAK256 SWAP1 JUMPDEST DUP2 SLOAD DUP2 MSTORE SWAP1 PUSH1 0x1 ADD SWAP1 PUSH1 0x20 ADD DUP1 DUP4 GT PUSH2 0x1DA JUMPI DUP3 SWAP1 SUB PUSH1 0x1F AND DUP3 ADD SWAP2 JUMPDEST POP POP POP POP POP DUP2 MSTORE PUSH1 0x20 ADD PUSH1 0x1 DUP3 ADD PUSH1 0x0 SWAP1 SLOAD SWAP1 PUSH2 0x100 EXP SWAP1 DIV PUSH1 0xFF AND ISZERO ISZERO ISZERO ISZERO DUP2 MSTORE PUSH1 0x20 ADD PUSH1 0x2 DUP3 ADD DUP1 SLOAD PUSH2 0x22B SWAP1 PUSH2 0xBD8 JUMP JUMPDEST DUP1 PUSH1 0x1F ADD PUSH1 0x20 DUP1 SWAP2 DIV MUL PUSH1 0x20 ADD PUSH1 0x40 MLOAD SWAP1 DUP2 ADD PUSH1 0x40 MSTORE DUP1 SWAP3 SWAP2 SWAP1 DUP2 DUP2 MSTORE PUSH1 0x20 ADD DUP3 DUP1 SLOAD PUSH2 0x257 SWAP1 PUSH2 0xBD8 JUMP JUMPDEST DUP1 ISZERO PUSH2 0x2A4 JUMPI DUP1 PUSH1 0x1F LT PUSH2 0x279 JUMPI PUSH2 0x100 DUP1 DUP4 SLOAD DIV MUL DUP4 MSTORE SWAP2 PUSH1 0x20 ADD SWAP2 PUSH2 0x2A4 JUMP JUMPDEST DUP3 ADD SWAP2 SWAP1 PUSH1 0x0 MSTORE PUSH1 0x20 PUSH1 0x0 KECCAK256 SWAP1 JUMPDEST DUP2 SLOAD DUP2 MSTORE SWAP1 PUSH1 0x1 ADD SWAP1 PUSH1 0x20 ADD DUP1 DUP4 GT PUSH2 0x287 JUMPI DUP3 SWAP1 SUB PUSH1 0x1F AND DUP3 ADD SWAP2 JUMPDEST POP POP POP POP POP DUP2 MSTORE POP POP DUP2 MSTORE PUSH1 0x20 ADD SWAP1 PUSH1 0x1 ADD SWAP1 PUSH2 0x14B JUMP JUMPDEST POP POP POP POP SWAP1 POP SWAP1 JUMP JUMPDEST PUSH1 0x0 DUP2 DUP2 SLOAD DUP2 LT PUSH2 0x2D9 JUMPI PUSH2 0x2D8 PUSH2 0xC09 JUMP JUMPDEST JUMPDEST SWAP1 PUSH1 0x0 MSTORE PUSH1 0x20 PUSH1 0x0 KECCAK256 SWAP1 PUSH1 0x3 MUL ADD PUSH1 0x0 DUP1 DUP3 ADD PUSH1 0x0 PUSH2 0x2F8 SWAP2 SWAP1 PUSH2 0x5EE JUMP JUMPDEST PUSH1 0x1 DUP3 ADD PUSH1 0x0 PUSH2 0x100 EXP DUP2 SLOAD SWAP1 PUSH1 0xFF MUL NOT AND SWAP1 SSTORE PUSH1 0x2 DUP3 ADD PUSH1 0x0 PUSH2 0x31C SWAP2 SWAP1 PUSH2 0x5EE JUMP JUMPDEST POP POP POP JUMP JUMPDEST PUSH1 0x1 PUSH1 0x0 SWAP1 SLOAD SWAP1 PUSH2 0x100 EXP SWAP1 DIV PUSH20 0xFFFFFFFFFFFFFFFFFFFFFFFFFFFFFFFFFFFFFFFF AND DUP2 JUMP JUMPDEST PUSH2 0x34F PUSH2 0x62E JUMP JUMPDEST PUSH1 0x0 DUP3 DUP2 SLOAD DUP2 LT PUSH2 0x363 JUMPI PUSH2 0x362 PUSH2 0xC09 JUMP JUMPDEST JUMPDEST SWAP1 PUSH1 0x0 MSTORE PUSH1 0x20 PUSH1 0x0 KECCAK256 SWAP1 PUSH1 0x3 MUL ADD PUSH1 0x40 MLOAD DUP1 PUSH1 0x60 ADD PUSH1 0x40 MSTORE SWAP1 DUP2 PUSH1 0x0 DUP3 ADD DUP1 SLOAD PUSH2 0x38C SWAP1 PUSH2 0xBD8 JUMP JUMPDEST DUP1 PUSH1 0x1F ADD PUSH1 0x20 DUP1 SWAP2 DIV MUL PUSH1 0x20 ADD PUSH1 0x40 MLOAD SWAP1 DUP2 ADD PUSH1 0x40 MSTORE DUP1 SWAP3 SWAP2 SWAP1 DUP2 DUP2 MSTORE PUSH1 0x20 ADD DUP3 DUP1 SLOAD PUSH2 0x3B8 SWAP1 PUSH2 0xBD8 JUMP JUMPDEST DUP1 ISZERO PUSH2 0x405 JUMPI DUP1 PUSH1 0x1F LT PUSH2 0x3DA JUMPI PUSH2 0x100 DUP1 DUP4 SLOAD DIV MUL DUP4 MSTORE SWAP2 PUSH1 0x20 ADD SWAP2 PUSH2 0x405 JUMP JUMPDEST DUP3 ADD SWAP2 SWAP1 PUSH1 0x0 MSTORE PUSH1 0x20 PUSH1 0x0 KECCAK256 SWAP1 JUMPDEST DUP2 SLOAD DUP2 MSTORE SWAP1 PUSH1 0x1 ADD SWAP1 PUSH1 0x20 ADD DUP1 DUP4 GT PUSH2 0x3E8 JUMPI DUP3 SWAP1 SUB PUSH1 0x1F AND DUP3 ADD SWAP2 JUMPDEST POP POP POP POP POP DUP2 MSTORE PUSH1 0x20 ADD PUSH1 0x1 DUP3 ADD PUSH1 0x0 SWAP1 SLOAD SWAP1 PUSH2 0x100 EXP SWAP1 DIV PUSH1 0xFF AND ISZERO ISZERO ISZERO ISZERO DUP2 MSTORE PUSH1 0x20 ADD PUSH1 0x2 DUP3 ADD DUP1 SLOAD PUSH2 0x439 SWAP1 PUSH2 0xBD8 JUMP JUMPDEST DUP1 PUSH1 0x1F ADD PUSH1 0x20 DUP1 SWAP2 DIV MUL PUSH1 0x20 ADD PUSH1 0x40 MLOAD SWAP1 DUP2 ADD PUSH1 0x40 MSTORE DUP1 SWAP3 SWAP2 SWAP1 DUP2 DUP2 MSTORE PUSH1 0x20 ADD DUP3 DUP1 SLOAD PUSH2 0x465 SWAP1 PUSH2 0xBD8 JUMP JUMPDEST DUP1 ISZERO PUSH2 0x4B2 JUMPI DUP1 PUSH1 0x1F LT PUSH2 0x487 JUMPI PUSH2 0x100 DUP1 DUP4 SLOAD DIV MUL DUP4 MSTORE SWAP2 PUSH1 0x20 ADD SWAP2 PUSH2 0x4B2 JUMP JUMPDEST DUP3 ADD SWAP2 SWAP1 PUSH1 0x0 MSTORE PUSH1 0x20 PUSH1 0x0 KECCAK256 SWAP1 JUMPDEST DUP2 SLOAD DUP2 MSTORE SWAP1 PUSH1 0x1 ADD SWAP1 PUSH1 0x20 ADD DUP1 DUP4 GT PUSH2 0x495 JUMPI DUP3 SWAP1 SUB PUSH1 0x1F AND DUP3 ADD SWAP2 JUMPDEST POP POP POP POP POP DUP2 MSTORE POP POP SWAP1 POP SWAP2 SWAP1 POP JUMP JUMPDEST CALLER PUSH20 0xFFFFFFFFFFFFFFFFFFFFFFFFFFFFFFFFFFFFFFFF AND PUSH1 0x1 PUSH1 0x0 SWAP1 SLOAD SWAP1 PUSH2 0x100 EXP SWAP1 DIV PUSH20 0xFFFFFFFFFFFFFFFFFFFFFFFFFFFFFFFFFFFFFFFF AND PUSH20 0xFFFFFFFFFFFFFFFFFFFFFFFFFFFFFFFFFFFFFFFF AND EQ PUSH2 0x51C JUMPI PUSH1 0x0 DUP1 REVERT JUMPDEST PUSH1 0x0 PUSH1 0x40 MLOAD DUP1 PUSH1 0x60 ADD PUSH1 0x40 MSTORE DUP1 DUP5 DUP2 MSTORE PUSH1 0x20 ADD PUSH1 0x0 ISZERO ISZERO DUP2 MSTORE PUSH1 0x20 ADD DUP4 DUP2 MSTORE POP SWAP1 DUP1 PUSH1 0x1 DUP2 SLOAD ADD DUP1 DUP3 SSTORE DUP1 SWAP2 POP POP PUSH1 0x1 SWAP1 SUB SWAP1 PUSH1 0x0 MSTORE PUSH1 0x20 PUSH1 0x0 KECCAK256 SWAP1 PUSH1 0x3 MUL ADD PUSH1 0x0 SWAP1 SWAP2 SWAP1 SWAP2 SWAP1 SWAP2 POP PUSH1 0x0 DUP3 ADD MLOAD DUP2 PUSH1 0x0 ADD SWAP1 DUP2 PUSH2 0x57A SWAP2 SWAP1 PUSH2 0xDE4 JUMP JUMPDEST POP PUSH1 0x20 DUP3 ADD MLOAD DUP2 PUSH1 0x1 ADD PUSH1 0x0 PUSH2 0x100 EXP DUP2 SLOAD DUP2 PUSH1 0xFF MUL NOT AND SWAP1 DUP4 ISZERO ISZERO MUL OR SWAP1 SSTORE POP PUSH1 0x40 DUP3 ADD MLOAD DUP2 PUSH1 0x2 ADD SWAP1 DUP2 PUSH2 0x5B0 SWAP2 SWAP1 PUSH2 0xDE4 JUMP JUMPDEST POP POP POP POP POP JUMP JUMPDEST DUP1 PUSH1 0x0 DUP4 DUP2 SLOAD DUP2 LT PUSH2 0x5CC JUMPI PUSH2 0x5CB PUSH2 0xC09 JUMP JUMPDEST JUMPDEST SWAP1 PUSH1 0x0 MSTORE PUSH1 0x20 PUSH1 0x0 KECCAK256 SWAP1 PUSH1 0x3 MUL ADD PUSH1 0x0 ADD SWAP1 DUP2 PUSH2 0x5E9 SWAP2 SWAP1 PUSH2 0xDE4 JUMP JUMPDEST POP POP POP JUMP JUMPDEST POP DUP1 SLOAD PUSH2 0x5FA SWAP1 PUSH2 0xBD8 JUMP JUMPDEST PUSH1 0x0 DUP3 SSTORE DUP1 PUSH1 0x1F LT PUSH2 0x60C JUMPI POP PUSH2 0x62B JUMP JUMPDEST PUSH1 0x1F ADD PUSH1 0x20 SWAP1 DIV SWAP1 PUSH1 0x0 MSTORE PUSH1 0x20 PUSH1 0x0 KECCAK256 SWAP1 DUP2 ADD SWAP1 PUSH2 0x62A SWAP2 SWAP1 PUSH2 0x651 JUMP JUMPDEST JUMPDEST POP JUMP JUMPDEST PUSH1 0x40 MLOAD DUP1 PUSH1 0x60 ADD PUSH1 0x40 MSTORE DUP1 PUSH1 0x60 DUP2 MSTORE PUSH1 0x20 ADD PUSH1 0x0 ISZERO ISZERO DUP2 MSTORE PUSH1 0x20 ADD PUSH1 0x60 DUP2 MSTORE POP SWAP1 JUMP JUMPDEST JUMPDEST DUP1 DUP3 GT ISZERO PUSH2 0x66A JUMPI PUSH1 0x0 DUP2 PUSH1 0x0 SWAP1 SSTORE POP PUSH1 0x1 ADD PUSH2 0x652 JUMP JUMPDEST POP SWAP1 JUMP JUMPDEST PUSH1 0x0 DUP2 MLOAD SWAP1 POP SWAP2 SWAP1 POP JUMP JUMPDEST PUSH1 0x0 DUP3 DUP3 MSTORE PUSH1 0x20 DUP3 ADD SWAP1 POP SWAP3 SWAP2 POP POP JUMP JUMPDEST PUSH1 0x0 DUP2 SWAP1 POP PUSH1 0x20 DUP3 ADD SWAP1 POP SWAP2 SWAP1 POP JUMP JUMPDEST PUSH1 0x0 DUP2 MLOAD SWAP1 POP SWAP2 SWAP1 POP JUMP JUMPDEST PUSH1 0x0 DUP3 DUP3 MSTORE PUSH1 0x20 DUP3 ADD SWAP1 POP SWAP3 SWAP2 POP POP JUMP JUMPDEST PUSH1 0x0 JUMPDEST DUP4 DUP2 LT ISZERO PUSH2 0x6D4 JUMPI DUP1 DUP3 ADD MLOAD DUP2 DUP5 ADD MSTORE PUSH1 0x20 DUP2 ADD SWAP1 POP PUSH2 0x6B9 JUMP JUMPDEST PUSH1 0x0 DUP5 DUP5 ADD MSTORE POP POP POP POP JUMP JUMPDEST PUSH1 0x0 PUSH1 0x1F NOT PUSH1 0x1F DUP4 ADD AND SWAP1 POP SWAP2 SWAP1 POP JUMP JUMPDEST PUSH1 0x0 PUSH2 0x6FC DUP3 PUSH2 0x69A JUMP JUMPDEST PUSH2 0x706 DUP2 DUP6 PUSH2 0x6A5 JUMP JUMPDEST SWAP4 POP PUSH2 0x716 DUP2 DUP6 PUSH1 0x20 DUP7 ADD PUSH2 0x6B6 JUMP JUMPDEST PUSH2 0x71F DUP2 PUSH2 0x6E0 JUMP JUMPDEST DUP5 ADD SWAP2 POP POP SWAP3 SWAP2 POP POP JUMP JUMPDEST PUSH1 0x0 DUP2 ISZERO ISZERO SWAP1 POP SWAP2 SWAP1 POP JUMP JUMPDEST PUSH2 0x73F DUP2 PUSH2 0x72A JUMP JUMPDEST DUP3 MSTORE POP POP JUMP JUMPDEST PUSH1 0x0 PUSH1 0x60 DUP4 ADD PUSH1 0x0 DUP4 ADD MLOAD DUP5 DUP3 SUB PUSH1 0x0 DUP7 ADD MSTORE PUSH2 0x762 DUP3 DUP3 PUSH2 0x6F1 JUMP JUMPDEST SWAP2 POP POP PUSH1 0x20 DUP4 ADD MLOAD PUSH2 0x777 PUSH1 0x20 DUP7 ADD DUP3 PUSH2 0x736 JUMP JUMPDEST POP PUSH1 0x40 DUP4 ADD MLOAD DUP5 DUP3 SUB PUSH1 0x40 DUP7 ADD MSTORE PUSH2 0x78F DUP3 DUP3 PUSH2 0x6F1 JUMP JUMPDEST SWAP2 POP POP DUP1 SWAP2 POP POP SWAP3 SWAP2 POP POP JUMP JUMPDEST PUSH1 0x0 PUSH2 0x7A8 DUP4 DUP4 PUSH2 0x745 JUMP JUMPDEST SWAP1 POP SWAP3 SWAP2 POP POP JUMP JUMPDEST PUSH1 0x0 PUSH1 0x20 DUP3 ADD SWAP1 POP SWAP2 SWAP1 POP JUMP JUMPDEST PUSH1 0x0 PUSH2 0x7C8 DUP3 PUSH2 0x66E JUMP JUMPDEST PUSH2 0x7D2 DUP2 DUP6 PUSH2 0x679 JUMP JUMPDEST SWAP4 POP DUP4 PUSH1 0x20 DUP3 MUL DUP6 ADD PUSH2 0x7E4 DUP6 PUSH2 0x68A JUMP JUMPDEST DUP1 PUSH1 0x0 JUMPDEST DUP6 DUP2 LT ISZERO PUSH2 0x820 JUMPI DUP5 DUP5 SUB DUP10 MSTORE DUP2 MLOAD PUSH2 0x801 DUP6 DUP3 PUSH2 0x79C JUMP JUMPDEST SWAP5 POP PUSH2 0x80C DUP4 PUSH2 0x7B0 JUMP JUMPDEST SWAP3 POP PUSH1 0x20 DUP11 ADD SWAP10 POP POP PUSH1 0x1 DUP2 ADD SWAP1 POP PUSH2 0x7E8 JUMP JUMPDEST POP DUP3 SWAP8 POP DUP8 SWAP6 POP POP POP POP POP POP SWAP3 SWAP2 POP POP JUMP JUMPDEST PUSH1 0x0 PUSH1 0x20 DUP3 ADD SWAP1 POP DUP2 DUP2 SUB PUSH1 0x0 DUP4 ADD MSTORE PUSH2 0x84C DUP2 DUP5 PUSH2 0x7BD JUMP JUMPDEST SWAP1 POP SWAP3 SWAP2 POP POP JUMP JUMPDEST PUSH1 0x0 PUSH1 0x40 MLOAD SWAP1 POP SWAP1 JUMP JUMPDEST PUSH1 0x0 DUP1 REVERT JUMPDEST PUSH1 0x0 DUP1 REVERT JUMPDEST PUSH1 0x0 DUP2 SWAP1 POP SWAP2 SWAP1 POP JUMP JUMPDEST PUSH2 0x87B DUP2 PUSH2 0x868 JUMP JUMPDEST DUP2 EQ PUSH2 0x886 JUMPI PUSH1 0x0 DUP1 REVERT JUMPDEST POP JUMP JUMPDEST PUSH1 0x0 DUP2 CALLDATALOAD SWAP1 POP PUSH2 0x898 DUP2 PUSH2 0x872 JUMP JUMPDEST SWAP3 SWAP2 POP POP JUMP JUMPDEST PUSH1 0x0 PUSH1 0x20 DUP3 DUP5 SUB SLT ISZERO PUSH2 0x8B4 JUMPI PUSH2 0x8B3 PUSH2 0x85E JUMP JUMPDEST JUMPDEST PUSH1 0x0 PUSH2 0x8C2 DUP5 DUP3 DUP6 ADD PUSH2 0x889 JUMP JUMPDEST SWAP2 POP POP SWAP3 SWAP2 POP POP JUMP JUMPDEST PUSH1 0x0 PUSH20 0xFFFFFFFFFFFFFFFFFFFFFFFFFFFFFFFFFFFFFFFF DUP3 AND SWAP1 POP SWAP2 SWAP1 POP JUMP JUMPDEST PUSH1 0x0 PUSH2 0x8F6 DUP3 PUSH2 0x8CB JUMP JUMPDEST SWAP1 POP SWAP2 SWAP1 POP JUMP JUMPDEST PUSH2 0x906 DUP2 PUSH2 0x8EB JUMP JUMPDEST DUP3 MSTORE POP POP JUMP JUMPDEST PUSH1 0x0 PUSH1 0x20 DUP3 ADD SWAP1 POP PUSH2 0x921 PUSH1 0x0 DUP4 ADD DUP5 PUSH2 0x8FD JUMP JUMPDEST SWAP3 SWAP2 POP POP JUMP JUMPDEST PUSH1 0x0 PUSH1 0x60 DUP4 ADD PUSH1 0x0 DUP4 ADD MLOAD DUP5 DUP3 SUB PUSH1 0x0 DUP7 ADD MSTORE PUSH2 0x944 DUP3 DUP3 PUSH2 0x6F1 JUMP JUMPDEST SWAP2 POP POP PUSH1 0x20 DUP4 ADD MLOAD PUSH2 0x959 PUSH1 0x20 DUP7 ADD DUP3 PUSH2 0x736 JUMP JUMPDEST POP PUSH1 0x40 DUP4 ADD MLOAD DUP5 DUP3 SUB PUSH1 0x40 DUP7 ADD MSTORE PUSH2 0x971 DUP3 DUP3 PUSH2 0x6F1 JUMP JUMPDEST SWAP2 POP POP DUP1 SWAP2 POP POP SWAP3 SWAP2 POP POP JUMP JUMPDEST PUSH1 0x0 PUSH1 0x20 DUP3 ADD SWAP1 POP DUP2 DUP2 SUB PUSH1 0x0 DUP4 ADD MSTORE PUSH2 0x998 DUP2 DUP5 PUSH2 0x927 JUMP JUMPDEST SWAP1 POP SWAP3 SWAP2 POP POP JUMP JUMPDEST PUSH1 0x0 DUP1 REVERT JUMPDEST PUSH1 0x0 DUP1 REVERT JUMPDEST PUSH32 0x4E487B7100000000000000000000000000000000000000000000000000000000 PUSH1 0x0 MSTORE PUSH1 0x41 PUSH1 0x4 MSTORE PUSH1 0x24 PUSH1 0x0 REVERT JUMPDEST PUSH2 0x9E2 DUP3 PUSH2 0x6E0 JUMP JUMPDEST DUP2 ADD DUP2 DUP2 LT PUSH8 0xFFFFFFFFFFFFFFFF DUP3 GT OR ISZERO PUSH2 0xA01 JUMPI PUSH2 0xA00 PUSH2 0x9AA JUMP JUMPDEST JUMPDEST DUP1 PUSH1 0x40 MSTORE POP POP POP JUMP JUMPDEST PUSH1 0x0 PUSH2 0xA14 PUSH2 0x854 JUMP JUMPDEST SWAP1 POP PUSH2 0xA20 DUP3 DUP3 PUSH2 0x9D9 JUMP JUMPDEST SWAP2 SWAP1 POP JUMP JUMPDEST PUSH1 0x0 PUSH8 0xFFFFFFFFFFFFFFFF DUP3 GT ISZERO PUSH2 0xA40 JUMPI PUSH2 0xA3F PUSH2 0x9AA JUMP JUMPDEST JUMPDEST PUSH2 0xA49 DUP3 PUSH2 0x6E0 JUMP JUMPDEST SWAP1 POP PUSH1 0x20 DUP2 ADD SWAP1 POP SWAP2 SWAP1 POP JUMP JUMPDEST DUP3 DUP2 DUP4 CALLDATACOPY PUSH1 0x0 DUP4 DUP4 ADD MSTORE POP POP POP JUMP JUMPDEST PUSH1 0x0 PUSH2 0xA78 PUSH2 0xA73 DUP5 PUSH2 0xA25 JUMP JUMPDEST PUSH2 0xA0A JUMP JUMPDEST SWAP1 POP DUP3 DUP2 MSTORE PUSH1 0x20 DUP2 ADD DUP5 DUP5 DUP5 ADD GT ISZERO PUSH2 0xA94 JUMPI PUSH2 0xA93 PUSH2 0x9A5 JUMP JUMPDEST JUMPDEST PUSH2 0xA9F DUP5 DUP3 DUP6 PUSH2 0xA56 JUMP JUMPDEST POP SWAP4 SWAP3 POP POP POP JUMP JUMPDEST PUSH1 0x0 DUP3 PUSH1 0x1F DUP4 ADD SLT PUSH2 0xABC JUMPI PUSH2 0xABB PUSH2 0x9A0 JUMP JUMPDEST JUMPDEST DUP2 CALLDATALOAD PUSH2 0xACC DUP5 DUP3 PUSH1 0x20 DUP7 ADD PUSH2 0xA65 JUMP JUMPDEST SWAP2 POP POP SWAP3 SWAP2 POP POP JUMP JUMPDEST PUSH1 0x0 DUP1 PUSH1 0x40 DUP4 DUP6 SUB SLT ISZERO PUSH2 0xAEC JUMPI PUSH2 0xAEB PUSH2 0x85E JUMP JUMPDEST JUMPDEST PUSH1 0x0 DUP4 ADD CALLDATALOAD PUSH8 0xFFFFFFFFFFFFFFFF DUP2 GT ISZERO PUSH2 0xB0A JUMPI PUSH2 0xB09 PUSH2 0x863 JUMP JUMPDEST JUMPDEST PUSH2 0xB16 DUP6 DUP3 DUP7 ADD PUSH2 0xAA7 JUMP JUMPDEST SWAP3 POP POP PUSH1 0x20 DUP4 ADD CALLDATALOAD PUSH8 0xFFFFFFFFFFFFFFFF DUP2 GT ISZERO PUSH2 0xB37 JUMPI PUSH2 0xB36 PUSH2 0x863 JUMP JUMPDEST JUMPDEST PUSH2 0xB43 DUP6 DUP3 DUP7 ADD PUSH2 0xAA7 JUMP JUMPDEST SWAP2 POP POP SWAP3 POP SWAP3 SWAP1 POP JUMP JUMPDEST PUSH1 0x0 DUP1 PUSH1 0x40 DUP4 DUP6 SUB SLT ISZERO PUSH2 0xB64 JUMPI PUSH2 0xB63 PUSH2 0x85E JUMP JUMPDEST JUMPDEST PUSH1 0x0 PUSH2 0xB72 DUP6 DUP3 DUP7 ADD PUSH2 0x889 JUMP JUMPDEST SWAP3 POP POP PUSH1 0x20 DUP4 ADD CALLDATALOAD PUSH8 0xFFFFFFFFFFFFFFFF DUP2 GT ISZERO PUSH2 0xB93 JUMPI PUSH2 0xB92 PUSH2 0x863 JUMP JUMPDEST JUMPDEST PUSH2 0xB9F DUP6 DUP3 DUP7 ADD PUSH2 0xAA7 JUMP JUMPDEST SWAP2 POP POP SWAP3 POP SWAP3 SWAP1 POP JUMP JUMPDEST PUSH32 0x4E487B7100000000000000000000000000000000000000000000000000000000 PUSH1 0x0 MSTORE PUSH1 0x22 PUSH1 0x4 MSTORE PUSH1 0x24 PUSH1 0x0 REVERT JUMPDEST PUSH1 0x0 PUSH1 0x2 DUP3 DIV SWAP1 POP PUSH1 0x1 DUP3 AND DUP1 PUSH2 0xBF0 JUMPI PUSH1 0x7F DUP3 AND SWAP2 POP JUMPDEST PUSH1 0x20 DUP3 LT DUP2 SUB PUSH2 0xC03 JUMPI PUSH2 0xC02 PUSH2 0xBA9 JUMP JUMPDEST JUMPDEST POP SWAP2 SWAP1 POP JUMP JUMPDEST PUSH32 0x4E487B7100000000000000000000000000000000000000000000000000000000 PUSH1 0x0 MSTORE PUSH1 0x32 PUSH1 0x4 MSTORE PUSH1 0x24 PUSH1 0x0 REVERT JUMPDEST PUSH1 0x0 DUP2 SWAP1 POP DUP2 PUSH1 0x0 MSTORE PUSH1 0x20 PUSH1 0x0 KECCAK256 SWAP1 POP SWAP2 SWAP1 POP JUMP JUMPDEST PUSH1 0x0 PUSH1 0x20 PUSH1 0x1F DUP4 ADD DIV SWAP1 POP SWAP2 SWAP1 POP JUMP JUMPDEST PUSH1 0x0 DUP3 DUP3 SHL SWAP1 POP SWAP3 SWAP2 POP POP JUMP JUMPDEST PUSH1 0x0 PUSH1 0x8 DUP4 MUL PUSH2 0xC9A PUSH32 0xFFFFFFFFFFFFFFFFFFFFFFFFFFFFFFFFFFFFFFFFFFFFFFFFFFFFFFFFFFFFFFFF DUP3 PUSH2 0xC5D JUMP JUMPDEST PUSH2 0xCA4 DUP7 DUP4 PUSH2 0xC5D JUMP JUMPDEST SWAP6 POP DUP1 NOT DUP5 AND SWAP4 POP DUP1 DUP7 AND DUP5 OR SWAP3 POP POP POP SWAP4 SWAP3 POP POP POP JUMP JUMPDEST PUSH1 0x0 DUP2 SWAP1 POP SWAP2 SWAP1 POP JUMP JUMPDEST PUSH1 0x0 PUSH2 0xCE1 PUSH2 0xCDC PUSH2 0xCD7 DUP5 PUSH2 0x868 JUMP JUMPDEST PUSH2 0xCBC JUMP JUMPDEST PUSH2 0x868 JUMP JUMPDEST SWAP1 POP SWAP2 SWAP1 POP JUMP JUMPDEST PUSH1 0x0 DUP2 SWAP1 POP SWAP2 SWAP1 POP JUMP JUMPDEST PUSH2 0xCFB DUP4 PUSH2 0xCC6 JUMP JUMPDEST PUSH2 0xD0F PUSH2 0xD07 DUP3 PUSH2 0xCE8 JUMP JUMPDEST DUP5 DUP5 SLOAD PUSH2 0xC6A JUMP JUMPDEST DUP3 SSTORE POP POP POP POP JUMP JUMPDEST PUSH1 0x0 SWAP1 JUMP JUMPDEST PUSH2 0xD24 PUSH2 0xD17 JUMP JUMPDEST PUSH2 0xD2F DUP2 DUP5 DUP5 PUSH2 0xCF2 JUMP JUMPDEST POP POP POP JUMP JUMPDEST JUMPDEST DUP2 DUP2 LT ISZERO PUSH2 0xD53 JUMPI PUSH2 0xD48 PUSH1 0x0 DUP3 PUSH2 0xD1C JUMP JUMPDEST PUSH1 0x1 DUP2 ADD SWAP1 POP PUSH2 0xD35 JUMP JUMPDEST POP POP JUMP JUMPDEST PUSH1 0x1F DUP3 GT ISZERO PUSH2 0xD98 JUMPI PUSH2 0xD69 DUP2 PUSH2 0xC38 JUMP JUMPDEST PUSH2 0xD72 DUP5 PUSH2 0xC4D JUMP JUMPDEST DUP2 ADD PUSH1 0x20 DUP6 LT ISZERO PUSH2 0xD81 JUMPI DUP2 SWAP1 POP JUMPDEST PUSH2 0xD95 PUSH2 0xD8D DUP6 PUSH2 0xC4D JUMP JUMPDEST DUP4 ADD DUP3 PUSH2 0xD34 JUMP JUMPDEST POP POP JUMPDEST POP POP POP JUMP JUMPDEST PUSH1 0x0 DUP3 DUP3 SHR SWAP1 POP SWAP3 SWAP2 POP POP JUMP JUMPDEST PUSH1 0x0 PUSH2 0xDBB PUSH1 0x0 NOT DUP5 PUSH1 0x8 MUL PUSH2 0xD9D JUMP JUMPDEST NOT DUP1 DUP4 AND SWAP2 POP POP SWAP3 SWAP2 POP POP JUMP JUMPDEST PUSH1 0x0 PUSH2 0xDD4 DUP4 DUP4 PUSH2 0xDAA JUMP JUMPDEST SWAP2 POP DUP3 PUSH1 0x2 MUL DUP3 OR SWAP1 POP SWAP3 SWAP2 POP POP JUMP JUMPDEST PUSH2 0xDED DUP3 PUSH2 0x69A JUMP JUMPDEST PUSH8 0xFFFFFFFFFFFFFFFF DUP2 GT ISZERO PUSH2 0xE06 JUMPI PUSH2 0xE05 PUSH2 0x9AA JUMP JUMPDEST JUMPDEST PUSH2 0xE10 DUP3 SLOAD PUSH2 0xBD8 JUMP JUMPDEST PUSH2 0xE1B DUP3 DUP3 DUP6 PUSH2 0xD57 JUMP JUMPDEST PUSH1 0x0 PUSH1 0x20 SWAP1 POP PUSH1 0x1F DUP4 GT PUSH1 0x1 DUP2 EQ PUSH2 0xE4E JUMPI PUSH1 0x0 DUP5 ISZERO PUSH2 0xE3C JUMPI DUP3 DUP8 ADD MLOAD SWAP1 POP JUMPDEST PUSH2 0xE46 DUP6 DUP3 PUSH2 0xDC8 JUMP JUMPDEST DUP7 SSTORE POP PUSH2 0xEAE JUMP JUMPDEST PUSH1 0x1F NOT DUP5 AND PUSH2 0xE5C DUP7 PUSH2 0xC38 JUMP JUMPDEST PUSH1 0x0 JUMPDEST DUP3 DUP2 LT ISZERO PUSH2 0xE84 JUMPI DUP5 DUP10 ADD MLOAD DUP3 SSTORE PUSH1 0x1 DUP3 ADD SWAP2 POP PUSH1 0x20 DUP6 ADD SWAP5 POP PUSH1 0x20 DUP2 ADD SWAP1 POP PUSH2 0xE5F JUMP JUMPDEST DUP7 DUP4 LT ISZERO PUSH2 0xEA1 JUMPI DUP5 DUP10 ADD MLOAD PUSH2 0xE9D PUSH1 0x1F DUP10 AND DUP3 PUSH2 0xDAA JUMP JUMPDEST DUP4 SSTORE POP JUMPDEST PUSH1 0x1 PUSH1 0x2 DUP9 MUL ADD DUP9 SSTORE POP POP POP JUMPDEST POP POP POP POP POP POP JUMP INVALID LOG2 PUSH5 0x6970667358 0x22 SLT KECCAK256 0xC7 0x4F DUP9 EXP MSIZE 0xAF PUSH26 0x6F3D89A07B2A45A073F7839FFE1652844B622CC6C0196E8F3A64 PUSH20 0x6F6C634300081200330000000000000000000000 "
		},
		"gasEstimates": {
			"creation": {
				"codeDepositCost": "764000",
				"executionCost": "25065",
				"totalCost": "789065"
			},
			"external": {
				"add(string,string)": "infinite",
				"get(uint256)": "infinite",
				"list()": "infinite",
				"owner()": "2536",
				"remove(uint256)": "infinite",
				"update(uint256,string)": "infinite"
			}
		},
		"methodIdentifiers": {
			"add(string,string)": "ebdf86ca",
			"get(uint256)": "9507d39a",
			"list()": "0f560cd7",
			"owner()": "8da5cb5b",
			"remove(uint256)": "4cc82215",
			"update(uint256,string)": "f745630f"
		}
	},
	"abi": [
		{
			"inputs": [],
			"stateMutability": "nonpayable",
			"type": "constructor"
		},
		{
			"inputs": [
				{
					"internalType": "string",
					"name": "_content",
					"type": "string"
				},
				{
					"internalType": "string",
					"name": "_author",
					"type": "string"
				}
			],
			"name": "add",
			"outputs": [],
			"stateMutability": "nonpayable",
			"type": "function"
		},
		{
			"inputs": [
				{
					"internalType": "uint256",
					"name": "_id",
					"type": "uint256"
				}
			],
			"name": "get",
			"outputs": [
				{
					"components": [
						{
							"internalType": "string",
							"name": "content",
							"type": "string"
						},
						{
							"internalType": "bool",
							"name": "statusl",
							"type": "bool"
						},
						{
							"internalType": "string",
							"name": "author",
							"type": "string"
						}
					],
					"internalType": "struct Todo.Task",
					"name": "",
					"type": "tuple"
				}
			],
			"stateMutability": "view",
			"type": "function"
		},
		{
			"inputs": [],
			"name": "list",
			"outputs": [
				{
					"components": [
						{
							"internalType": "string",
							"name": "content",
							"type": "string"
						},
						{
							"internalType": "bool",
							"name": "statusl",
							"type": "bool"
						},
						{
							"internalType": "string",
							"name": "author",
							"type": "string"
						}
					],
					"internalType": "struct Todo.Task[]",
					"name": "",
					"type": "tuple[]"
				}
			],
			"stateMutability": "view",
			"type": "function"
		},
		{
			"inputs": [],
			"name": "owner",
			"outputs": [
				{
					"internalType": "address",
					"name": "",
					"type": "address"
				}
			],
			"stateMutability": "view",
			"type": "function"
		},
		{
			"inputs": [
				{
					"internalType": "uint256",
					"name": "_id",
					"type": "uint256"
				}
			],
			"name": "remove",
			"outputs": [],
			"stateMutability": "nonpayable",
			"type": "function"
		},
		{
			"inputs": [
				{
					"internalType": "uint256",
					"name": "_id",
					"type": "uint256"
				},
				{
					"internalType": "string",
					"name": "_content",
					"type": "string"
				}
			],
			"name": "update",
			"outputs": [],
			"stateMutability": "nonpayable",
			"type": "function"
		}
	]
}